{
  "contractName": "AlkemiNetworkMock",
  "abi": [
    {
      "constant": true,
      "inputs": [],
      "name": "owner",
      "outputs": [
        {
          "name": "",
          "type": "address"
        }
      ],
      "payable": false,
      "stateMutability": "view",
      "type": "function"
    },
    {
      "constant": true,
      "inputs": [],
      "name": "currentSettlementId",
      "outputs": [
        {
          "name": "",
          "type": "uint256"
        }
      ],
      "payable": false,
      "stateMutability": "view",
      "type": "function"
    },
    {
      "constant": true,
      "inputs": [],
      "name": "alkemiOracle",
      "outputs": [
        {
          "name": "",
          "type": "address"
        }
      ],
      "payable": false,
      "stateMutability": "view",
      "type": "function"
    },
    {
      "inputs": [],
      "payable": false,
      "stateMutability": "nonpayable",
      "type": "constructor"
    },
    {
      "constant": false,
      "inputs": [
        {
          "name": "exchangesAddresses",
          "type": "address[]"
        },
        {
          "name": "surplusTokensAddresses",
          "type": "address[]"
        },
        {
          "name": "deficitTokensAddresses",
          "type": "address[]"
        },
        {
          "name": "surplus",
          "type": "uint128[]"
        },
        {
          "name": "deficit",
          "type": "uint128[]"
        }
      ],
      "name": "doSettlement",
      "outputs": [
        {
          "name": "",
          "type": "bool"
        }
      ],
      "payable": false,
      "stateMutability": "nonpayable",
      "type": "function"
    },
    {
      "constant": false,
      "inputs": [
        {
          "name": "_owner",
          "type": "address"
        }
      ],
      "name": "setNewOwner",
      "outputs": [],
      "payable": false,
      "stateMutability": "nonpayable",
      "type": "function"
    },
    {
      "constant": false,
      "inputs": [
        {
          "name": "_oracle",
          "type": "address"
        }
      ],
      "name": "setAlkemiOracle",
      "outputs": [],
      "payable": false,
      "stateMutability": "nonpayable",
      "type": "function"
    }
  ],
  "bytecode": "0x608060405234801561001057600080fd5b506100203361002a60201b60201c565b60016002556100c4565b6001600160a01b0381161580159061004b57506001600160a01b0381163014155b15156100a2576040517f08c379a00000000000000000000000000000000000000000000000000000000081526004018080602001828103825260248152602001806106956024913960400191505060405180910390fd5b600080546001600160a01b0319166001600160a01b0392909216919091179055565b6105c2806100d36000396000f3fe608060405234801561001057600080fd5b50600436106100625760003560e01c80633d3d96591461006757806375a83f55146102295780638da5cb5b14610251578063ddfeb97514610275578063e90038bc1461028f578063f5a1f5b414610297575b600080fd5b610215600480360360a081101561007d57600080fd5b810190602081018135600160201b81111561009757600080fd5b8201836020820111156100a957600080fd5b803590602001918460208302840111600160201b831117156100ca57600080fd5b919390929091602081019035600160201b8111156100e757600080fd5b8201836020820111156100f957600080fd5b803590602001918460208302840111600160201b8311171561011a57600080fd5b919390929091602081019035600160201b81111561013757600080fd5b82018360208201111561014957600080fd5b803590602001918460208302840111600160201b8311171561016a57600080fd5b919390929091602081019035600160201b81111561018757600080fd5b82018360208201111561019957600080fd5b803590602001918460208302840111600160201b831117156101ba57600080fd5b919390929091602081019035600160201b8111156101d757600080fd5b8201836020820111156101e957600080fd5b803590602001918460208302840111600160201b8311171561020a57600080fd5b5090925090506102bd565b604080519115158252519081900360200190f35b61024f6004803603602081101561023f57600080fd5b50356001600160a01b031661031d565b005b610259610375565b604080516001600160a01b039092168252519081900360200190f35b61027d610384565b60408051918252519081900360200190f35b61025961038a565b61024f600480360360208110156102ad57600080fd5b50356001600160a01b0316610399565b6001546000906001600160a01b0316331461030c57604051600160e51b62461bcd02815260040180806020018281038252603c815260200180610536603c913960400191505060405180910390fd5b5060019a9950505050505050505050565b6000546001600160a01b0316331461036957604051600160e51b62461bcd0281526004018080602001828103825260348152602001806104de6034913960400191505060405180910390fd5b610372816103ee565b50565b6000546001600160a01b031681565b60025481565b6001546001600160a01b031681565b6000546001600160a01b031633146103e557604051600160e51b62461bcd0281526004018080602001828103825260348152602001806104de6034913960400191505060405180910390fd5b6103728161045a565b6001600160a01b038116151561043857604051600160e51b62461bcd0281526004018080602001828103825260258152602001806105726025913960400191505060405180910390fd5b600180546001600160a01b0319166001600160a01b0392909216919091179055565b6001600160a01b0381161580159061047b57506001600160a01b0381163014155b15156104bb57604051600160e51b62461bcd0281526004018080602001828103825260248152602001806105126024913960400191505060405180910390fd5b600080546001600160a01b0319166001600160a01b039290921691909117905556fe416c6b656d694e6574776f726b3a204f6e6c79206f776e65722063616e20706572666f726d2074686973206f7065726174696f6e416c6b656d694e6574776f726b3a20696e76616c6964206f776e65722061646472657373416c6b656d694e6574776f726b3a204f6e6c7920416c6b656d69204f7261636c652063616e20706572666f726d2074686973206f7065726174696f6e416c6b656d694e6574776f726b3a20696e76616c6964206f7261636c652061646472657373a165627a7a72305820d28961af3636a6f15d09d5058b4e8c25f9eb4d2b6803ff972a7f8dab831c02290029416c6b656d694e6574776f726b3a20696e76616c6964206f776e65722061646472657373",
  "source": "pragma solidity ^0.5.0;\n\n/**\n * @title AlkemiNetworkMock\n * @notice A contract to mock AlkemiNetwork functions\n */\ncontract AlkemiNetworkMock {\n    /// @notice owner address\n    address public owner;\n\n    /// @notice alkemi oracle address\n    address public alkemiOracle;\n\n    /// @notice settlement id\n    uint256 public currentSettlementId;\n\n    constructor() public {\n        _setOwner(msg.sender);\n\n        currentSettlementId = 1;\n    }\n\n    /**\n   * @notice Verifies that the caller is the Owner\n   */\n    modifier onlyOwner() {\n        require(\n            msg.sender == owner,\n            \"AlkemiNetwork: Only owner can perform this operation\"\n        );\n        _;\n    }\n\n    /**\n   * @notice Verifies that the calles is Alkemi Oracle\n   */\n    modifier onlyAlkemiOracle() {\n        require(\n            msg.sender == alkemiOracle,\n            \"AlkemiNetwork: Only Alkemi Oracle can perform this operation\"\n        );\n        _;\n    }\n\n    /**\n   * @notice settlement function\n   * @param exchangesAddresses list of exchanges addresses\n   * @param surplusTokensAddresses list of surplus tokens\n   * @param deficitTokensAddresses list of dificit tokens\n   * @param surplus list of surplus amount\n   * @param deficit list of deficit\n   */\n    function doSettlement(\n        address[] calldata exchangesAddresses,\n        address[] calldata surplusTokensAddresses,\n        address[] calldata deficitTokensAddresses,\n        uint128[] calldata surplus,\n        uint128[] calldata deficit\n    ) external onlyAlkemiOracle returns (bool) {\n        return true;\n    }\n\n    /**\n   * @notice Set new owner address\n   * @dev can only be called by the AlkemiNetwork owner\n   * @param _owner Address of the new Owner\n   */\n    function setNewOwner(address _owner) public onlyOwner {\n        _setOwner(_owner);\n    }\n\n    /**\n   * @notice Set Alkemi Oracle address\n   * @dev can only be called by the AlkemiNetwork owner\n   * @param _oracle oracle address\n   */\n    function setAlkemiOracle(address _oracle) public onlyOwner {\n        _setAlkemiOracle(_oracle);\n    }\n\n    function _setOwner(address _owner) internal {\n        require(\n            (_owner != address(0)) && (_owner != address(this)),\n            \"AlkemiNetwork: invalid owner address\"\n        );\n\n        owner = _owner;\n    }\n\n    function _setAlkemiOracle(address _oracle) internal {\n        require(_oracle != address(0), \"AlkemiNetwork: invalid oracle address\");\n\n        alkemiOracle = _oracle;\n    }\n}\n",
  "sourcePath": "/Users/haythem96/Projects/Alkemi/alkemi-protocol/contracts/mocks/AlkemiNetworkMock.sol",
  "compiler": {
    "name": "solc",
    "version": "0.5.5+commit.47a71e8f.Emscripten.clang"
  },
  "schemaVersion": "3.0.20",
  "updatedAt": "2020-01-08T15:42:17.007Z",
  "devdoc": {
    "methods": {
      "doSettlement(address[],address[],address[],uint128[],uint128[])": {
        "params": {
          "deficit": "list of deficit",
          "deficitTokensAddresses": "list of dificit tokens",
          "exchangesAddresses": "list of exchanges addresses",
          "surplus": "list of surplus amount",
          "surplusTokensAddresses": "list of surplus tokens"
        }
      },
      "setAlkemiOracle(address)": {
        "details": "can only be called by the AlkemiNetwork owner",
        "params": {
          "_oracle": "oracle address"
        }
      },
      "setNewOwner(address)": {
        "details": "can only be called by the AlkemiNetwork owner",
        "params": {
          "_owner": "Address of the new Owner"
        }
      }
    },
    "title": "AlkemiNetworkMock"
  },
  "userdoc": {
    "methods": {
      "doSettlement(address[],address[],address[],uint128[],uint128[])": {
        "notice": "settlement function"
      },
      "setAlkemiOracle(address)": {
        "notice": "Set Alkemi Oracle address"
      },
      "setNewOwner(address)": {
        "notice": "Set new owner address"
      }
    },
    "notice": "A contract to mock AlkemiNetwork functions"
  }
}