{
  "contractName": "OracleGuard",
  "abi": [
    {
      "constant": true,
      "inputs": [
        {
          "name": "",
          "type": "address"
        }
      ],
      "name": "nodes",
      "outputs": [
        {
          "name": "",
          "type": "uint256"
        }
      ],
      "payable": false,
      "stateMutability": "view",
      "type": "function"
    },
    {
      "constant": true,
      "inputs": [],
      "name": "requiredTokens",
      "outputs": [
        {
          "name": "",
          "type": "uint256"
        }
      ],
      "payable": false,
      "stateMutability": "view",
      "type": "function"
    },
    {
      "constant": true,
      "inputs": [],
      "name": "nodesCounter",
      "outputs": [
        {
          "name": "",
          "type": "uint256"
        }
      ],
      "payable": false,
      "stateMutability": "view",
      "type": "function"
    },
    {
      "constant": true,
      "inputs": [
        {
          "name": "",
          "type": "address"
        }
      ],
      "name": "auths",
      "outputs": [
        {
          "name": "",
          "type": "uint256"
        }
      ],
      "payable": false,
      "stateMutability": "view",
      "type": "function"
    },
    {
      "constant": true,
      "inputs": [
        {
          "name": "",
          "type": "address"
        }
      ],
      "name": "contracts",
      "outputs": [
        {
          "name": "",
          "type": "uint256"
        }
      ],
      "payable": false,
      "stateMutability": "view",
      "type": "function"
    },
    {
      "constant": true,
      "inputs": [
        {
          "name": "",
          "type": "uint256"
        }
      ],
      "name": "slot",
      "outputs": [
        {
          "name": "",
          "type": "address"
        }
      ],
      "payable": false,
      "stateMutability": "view",
      "type": "function"
    },
    {
      "constant": true,
      "inputs": [],
      "name": "alkemiToken",
      "outputs": [
        {
          "name": "",
          "type": "address"
        }
      ],
      "payable": false,
      "stateMutability": "view",
      "type": "function"
    },
    {
      "constant": true,
      "inputs": [],
      "name": "alkemiOracle",
      "outputs": [
        {
          "name": "",
          "type": "address"
        }
      ],
      "payable": false,
      "stateMutability": "view",
      "type": "function"
    },
    {
      "inputs": [
        {
          "name": "minimumTokens",
          "type": "uint256"
        }
      ],
      "payable": false,
      "stateMutability": "nonpayable",
      "type": "constructor"
    },
    {
      "constant": true,
      "inputs": [
        {
          "name": "_contract",
          "type": "address"
        }
      ],
      "name": "isContractAuth",
      "outputs": [
        {
          "name": "",
          "type": "bool"
        }
      ],
      "payable": false,
      "stateMutability": "view",
      "type": "function"
    },
    {
      "constant": true,
      "inputs": [
        {
          "name": "_node",
          "type": "address"
        }
      ],
      "name": "isNodeAuth",
      "outputs": [
        {
          "name": "",
          "type": "bool"
        }
      ],
      "payable": false,
      "stateMutability": "view",
      "type": "function"
    },
    {
      "constant": true,
      "inputs": [
        {
          "name": "_node",
          "type": "address"
        }
      ],
      "name": "isNodeBan",
      "outputs": [
        {
          "name": "",
          "type": "bool"
        }
      ],
      "payable": false,
      "stateMutability": "view",
      "type": "function"
    },
    {
      "constant": true,
      "inputs": [
        {
          "name": "_node",
          "type": "address"
        }
      ],
      "name": "isNodeSlashed",
      "outputs": [
        {
          "name": "",
          "type": "bool"
        }
      ],
      "payable": false,
      "stateMutability": "view",
      "type": "function"
    },
    {
      "constant": false,
      "inputs": [
        {
          "name": "usr",
          "type": "address"
        },
        {
          "name": "permission",
          "type": "uint256"
        }
      ],
      "name": "rely",
      "outputs": [],
      "payable": false,
      "stateMutability": "nonpayable",
      "type": "function"
    },
    {
      "constant": false,
      "inputs": [
        {
          "name": "usr",
          "type": "address"
        },
        {
          "name": "permission",
          "type": "uint256"
        }
      ],
      "name": "deny",
      "outputs": [],
      "payable": false,
      "stateMutability": "nonpayable",
      "type": "function"
    },
    {
      "constant": false,
      "inputs": [
        {
          "name": "a",
          "type": "address[]"
        }
      ],
      "name": "registerNode",
      "outputs": [],
      "payable": false,
      "stateMutability": "nonpayable",
      "type": "function"
    },
    {
      "constant": false,
      "inputs": [
        {
          "name": "a",
          "type": "address[]"
        }
      ],
      "name": "authNode",
      "outputs": [],
      "payable": false,
      "stateMutability": "nonpayable",
      "type": "function"
    },
    {
      "constant": false,
      "inputs": [
        {
          "name": "a",
          "type": "address"
        }
      ],
      "name": "dropNode",
      "outputs": [],
      "payable": false,
      "stateMutability": "nonpayable",
      "type": "function"
    },
    {
      "constant": false,
      "inputs": [
        {
          "name": "a",
          "type": "address[]"
        }
      ],
      "name": "authContract",
      "outputs": [],
      "payable": false,
      "stateMutability": "nonpayable",
      "type": "function"
    },
    {
      "constant": false,
      "inputs": [
        {
          "name": "a",
          "type": "address"
        }
      ],
      "name": "dropContract",
      "outputs": [],
      "payable": false,
      "stateMutability": "nonpayable",
      "type": "function"
    },
    {
      "constant": false,
      "inputs": [
        {
          "name": "oracleContract",
          "type": "address"
        }
      ],
      "name": "setOracleContract",
      "outputs": [],
      "payable": false,
      "stateMutability": "nonpayable",
      "type": "function"
    },
    {
      "constant": false,
      "inputs": [
        {
          "name": "_alkemiToken",
          "type": "address"
        }
      ],
      "name": "setTokenContract",
      "outputs": [],
      "payable": false,
      "stateMutability": "nonpayable",
      "type": "function"
    }
  ],
  "bytecode": "0x608060405234801561001057600080fd5b50604051602080610f8d8339810180604052602081101561003057600080fd5b50513360009081526004602052604081206001905580546001600160a01b0319168155600291909155600355610f228061006b6000396000f3fe608060405234801561001057600080fd5b50600436106101365760003560e01c80637fcce058116100b8578063cc129e311161007c578063cc129e311461040e578063db039ba314610434578063e90038bc1461043c578063e90ae1df14610444578063f123d8c814610213578063f1cb7b6c1461046a57610136565b80637fcce0581461033d57806392595c5614610363578063b2025e4f14610389578063bbcd5bbe146103c2578063c6a71aa3146103e857610136565b8063557031c0116100ff578063557031c01461023f578063578ce4c51461027957806364e72dbd1461028157806369dc9ff3146102a75780636bee02e0146102cd57610136565b806205be9a1461013b578063189a5a17146101ad5780631e8be7b0146101e5578063496ccd9b146101ed5780635157742714610213575b600080fd5b6101ab6004803603602081101561015157600080fd5b81019060208101813564010000000081111561016c57600080fd5b82018360208201111561017e57600080fd5b803590602001918460208302840111640100000000831117156101a057600080fd5b5090925090506104da565b005b6101d3600480360360208110156101c357600080fd5b50356001600160a01b03166106b8565b60408051918252519081900360200190f35b6101d36106ca565b6101ab6004803603602081101561020357600080fd5b50356001600160a01b03166106d0565b6101ab6004803603604081101561022957600080fd5b506001600160a01b0381351690602001356107c5565b6102656004803603602081101561025557600080fd5b50356001600160a01b0316610839565b604080519115158252519081900360200190f35b6101d3610885565b6101d36004803603602081101561029757600080fd5b50356001600160a01b031661088b565b6101d3600480360360208110156102bd57600080fd5b50356001600160a01b031661089d565b6101ab600480360360208110156102e357600080fd5b8101906020810181356401000000008111156102fe57600080fd5b82018360208201111561031057600080fd5b8035906020019184602083028401116401000000008311171561033257600080fd5b5090925090506108af565b6101ab6004803603602081101561035357600080fd5b50356001600160a01b0316610a87565b6102656004803603602081101561037957600080fd5b50356001600160a01b0316610af9565b6103a66004803603602081101561039f57600080fd5b5035610b46565b604080516001600160a01b039092168252519081900360200190f35b6101ab600480360360208110156103d857600080fd5b50356001600160a01b0316610b61565b6101ab600480360360208110156103fe57600080fd5b50356001600160a01b0316610c3b565b6102656004803603602081101561042457600080fd5b50356001600160a01b0316610cdb565b6103a6610cf9565b6103a6610d08565b6102656004803603602081101561045a57600080fd5b50356001600160a01b0316610d17565b6101ab6004803603602081101561048057600080fd5b81019060208101813564010000000081111561049b57600080fd5b8201836020820111156104ad57600080fd5b803590602001918460208302840111640100000000831117156104cf57600080fd5b509092509050610d60565b3360009081526004602052604090205460019081146105315760408051600160e51b62461bcd02815260206004820152601b6024820152600080516020610e69833981519152604482015290519081900360640190fd5b60005b828110156106b257600084848381811061054a57fe5b905060200201356001600160a01b03166001600160a01b0316141515156105a557604051600160e51b62461bcd028152600401808060200182810382526023815260200180610eaf6023913960400191505060405180910390fd5b600060988585848181106105b557fe5b60ff6001600160a01b0360209283029490940135841690941c93841660009081526007909152604090205492935050161561062457604051600160e51b62461bcd028152600401808060200182810382526026815260200180610e896026913960400191505060405180910390fd5b60016006600087878681811061063657fe5b602090810292909201356001600160a01b03168352508101919091526040016000205584848381811061066557fe5b60ff909316600090815260076020908152604090912080546001600160a01b0319166001600160a01b03929095029390930135169290921790555060038054600190810190915501610534565b50505050565b60066020526000908152604090205481565b60025481565b3360009081526004602052604090205460019081146107275760408051600160e51b62461bcd02815260206004820152601b6024820152600080516020610e69833981519152604482015290519081900360640190fd5b6001600160a01b03821615156107875760408051600160e51b62461bcd02815260206004820152601c60248201527f4f7261636c6547756172643a20696e76616c6964206164647265737300000000604482015290519081900360640190fd5b50600080546001600160a01b0390811682526004602052604080832083905582546001600160a01b0319169390911692831782559181522060029055565b33600090815260046020526040902054600190811461081c5760408051600160e51b62461bcd02815260206004820152601b6024820152600080516020610e69833981519152604482015290519081900360640190fd5b506001600160a01b03909116600090815260046020526040902055565b6001600160a01b038116600090815260066020526040812054600214801561087f57506001600160a01b0382811660981c60ff1660009081526007602052604090205416155b92915050565b60035481565b60046020526000908152604090205481565b60056020526000908152604090205481565b3360009081526004602052604090205460029081146109065760408051600160e51b62461bcd02815260206004820152601b6024820152600080516020610e69833981519152604482015290519081900360640190fd5b60005b828110156106b257600084848381811061091f57fe5b905060200201356001600160a01b03166001600160a01b03161415151561097a57604051600160e51b62461bcd028152600401808060200182810382526023815260200180610eaf6023913960400191505060405180910390fd5b6000609885858481811061098a57fe5b60ff6001600160a01b0360209283029490940135841690941c9384166000908152600790915260409020549293505016156109f957604051600160e51b62461bcd028152600401808060200182810382526026815260200180610e896026913960400191505060405180910390fd5b600160066000878786818110610a0b57fe5b602090810292909201356001600160a01b031683525081019190915260400160002055848483818110610a3a57fe5b60ff909316600090815260076020908152604090912080546001600160a01b0319166001600160a01b03929095029390930135169290921790555060038054600190810190915501610909565b336000908152600460205260409020546001908114610ade5760408051600160e51b62461bcd02815260206004820152601b6024820152600080516020610e69833981519152604482015290519081900360640190fd5b506001600160a01b0316600090815260056020526040812055565b6001600160a01b038116600090815260066020526040812054600114801561087f5750506001600160a01b03908116609881901c60ff166000908152600760205260409020549091161490565b6007602052600090815260409020546001600160a01b031681565b336000908152600460205260409020546001908114610bb85760408051600160e51b62461bcd02815260206004820152601b6024820152600080516020610e69833981519152604482015290519081900360640190fd5b6001600160a01b0382161515610c185760408051600160e51b62461bcd02815260206004820152601c60248201527f4f7261636c6547756172643a20696e76616c6964206164647265737300000000604482015290519081900360640190fd5b50600180546001600160a01b0319166001600160a01b0392909216919091179055565b336000908152600460205260409020546002908114610c925760408051600160e51b62461bcd02815260206004820152601b6024820152600080516020610e69833981519152604482015290519081900360640190fd5b506001600160a01b031660008181526006602090815260408083206002905560989390931c60ff168252600790522080546001600160a01b031916905560038054600019019055565b6001600160a01b031660009081526005602052604090205460011490565b6001546001600160a01b031681565b6000546001600160a01b031681565b6001600160a01b038116600090815260066020526040812054600314801561087f5750506001600160a01b0390811660981c60ff16600090815260076020526040902054161590565b336000908152600460205260409020546001908114610db75760408051600160e51b62461bcd02815260206004820152601b6024820152600080516020610e69833981519152604482015290519081900360640190fd5b60005b828110156106b2576000848483818110610dd057fe5b905060200201356001600160a01b03166001600160a01b031614151515610e2b57604051600160e51b62461bcd028152600401808060200182810382526025815260200180610ed26025913960400191505060405180910390fd5b600160056000868685818110610e3d57fe5b602090810292909201356001600160a01b031683525081019190915260400160002055600101610dba56fe4f7261636c6547756172643a206e6f7420617574686f72697a656400000000004f7261636c6547756172643a206f7261636c6520616c726561647920617574686f72697a65644f7261636c6547756172643a20696e76616c6964206f7261636c6520616464726573734f7261636c6547756172643a20696e76616c696420636f6e74726163742061646472657373a165627a7a72305820be7e18b000d68d5f7eb973d4afb8cb28eaa24096f3452e2aa89c60ccca6d12940029",
  "source": "pragma solidity ^0.5.0;\n\ncontract OracleGuard {\n    /// @notice Alkemi oracle contract address\n    address public alkemiOracle;\n\n    /// @notice Alkemi token address\n    address public alkemiToken;\n\n    /// @notice required minimum amount of tokens to run book keeper node\n    uint256 public requiredTokens;\n\n    /// @notice number of available nodes\n    uint256 public nodesCounter;\n\n    // --- Auth ---\n    // 1: OracleGuard Owner permission\n    // 2: OracleContract permission\n    mapping(address => uint256) public auths;\n\n    /// @notice Whitelisted contracts, set by an auth\n    mapping(address => uint256) public contracts;\n\n    /// @notice Mapping for nodes, set by an auth\n    // 0: node not authenticated\n    // 1: node authenticated\n    // 2: node banned\n    // 3: slashed node (does not have minimum amount of tokens)\n    mapping(address => uint256) public nodes;\n\n    /// @notice Authorized nodes, set by an auth\n    mapping(uint256 => address) public slot;\n\n    /**\n   * @notice constructor\n   * @param minimumTokens required Alkemi Token for nodes to submit book\n   */\n    constructor(uint256 minimumTokens) public {\n        auths[msg.sender] = 1;\n\n        alkemiOracle = address(0);\n        requiredTokens = minimumTokens;\n        nodesCounter = 0;\n    }\n\n    /**\n   * @notice Allow only authenticated sender\n   */\n    modifier auth(uint256 permission) {\n        require(auths[msg.sender] == permission, \"OracleGuard: not authorized\");\n        _;\n    }\n\n    /**\n   * @notice Check if contract is authorized to call Alkemi Oracle\n   * @param _contract contract address\n   * @return true if authorized\n   */\n    function isContractAuth(address _contract) external view returns (bool) {\n        return (contracts[_contract] == 1);\n    }\n\n    /**\n   * @notice Check if node is authorized to submit book to Alkemi Oracle\n   * @param _node node address\n   * @return true if authorized\n   */\n    function isNodeAuth(address _node) external view returns (bool) {\n        return ((nodes[_node] == 1) &&\n            (slot[uint8(uint256(_node) >> 152)] == _node));\n    }\n\n    /**\n   * @notice check if node is banned\n   * @param _node node address\n   * @return true if banned\n   */\n    function isNodeBan(address _node) external view returns (bool) {\n        return ((nodes[_node] == 2) &&\n            (slot[uint8(uint256(_node) >> 152)] == address(0)));\n    }\n\n    /**\n   * @notice check if node is slashed (node does not have minimum token amount)\n   * @param _node node address\n   * @return true if banned\n   */\n    function isNodeSlashed(address _node) external view returns (bool) {\n        return ((nodes[_node] == 3) &&\n            (slot[uint8(uint256(_node) >> 152)] == address(0)));\n    }\n\n    /**\n   * @notice Grant to an address permission\n   * @dev can only be called from an authorized sender\n   * @param usr address\n   * @param permission Permission type\n   */\n    function rely(address usr, uint256 permission) external auth(1) {\n        auths[usr] = permission;\n    }\n\n    /**\n   * @notice Remove from an address OracleGuard Owner permission\n   * @dev can only be called from an authorized sender\n   * @param usr address\n   * @param permission Permission type\n   */\n    function deny(address usr, uint256 permission) external auth(1) {\n        auths[usr] = permission;\n    }\n\n    /**\n   * @notice Register node\n   * @dev Node can only be registered by Alkemi\n   * @param a node address\n   */\n    function registerNode(address[] calldata a) external auth(1) {\n        for (uint256 i = 0; i < a.length; i++) {\n            require(a[i] != address(0), \"OracleGuard: invalid oracle address\");\n            uint8 s = uint8(uint256(a[i]) >> 152);\n            require(\n                slot[s] == address(0),\n                \"OracleGuard: oracle already authorized\"\n            );\n            nodes[a[i]] = 1;\n            slot[s] = a[i];\n            nodesCounter++;\n        }\n    }\n\n    /**\n   * @notice Auth node to call oracle\n   * @dev can only be called from an authorized sender\n   * @param a nodes addresses\n   */\n    function authNode(address[] calldata a) external auth(2) {\n        for (uint256 i = 0; i < a.length; i++) {\n            require(a[i] != address(0), \"OracleGuard: invalid oracle address\");\n            uint8 s = uint8(uint256(a[i]) >> 152);\n            require(\n                slot[s] == address(0),\n                \"OracleGuard: oracle already authorized\"\n            );\n            nodes[a[i]] = 1;\n            slot[s] = a[i];\n            nodesCounter++;\n        }\n    }\n\n    /**\n   * @notice Ban node\n   * @dev can only be called from an authorized sender\n   * @param a node address\n   */\n    function dropNode(address a) external auth(2) {\n        nodes[a] = 2;\n        slot[uint8(uint256(a) >> 152)] = address(0);\n        nodesCounter--;\n    }\n\n    /**\n   * @notice Auth contracts to call oracle\n   * @dev can only be called from an authorized sender\n   * @param a contracts addresseses\n   */\n    function authContract(address[] calldata a) external auth(1) {\n        for (uint256 i = 0; i < a.length; i++) {\n            require(\n                a[i] != address(0),\n                \"OracleGuard: invalid contract address\"\n            );\n            contracts[a[i]] = 1;\n        }\n    }\n\n    /**\n   * @notice Ban contract\n   * @dev can only be called from an authorized sender\n   * @param a contract address\n   */\n    function dropContract(address a) external auth(1) {\n        contracts[a] = 0;\n    }\n\n    /**\n   * @notice Set on-chain oracle address\n   * @dev can only be called from an authorized sender\n   * @param oracleContract oracle contract address\n   */\n    function setOracleContract(address oracleContract) external auth(1) {\n        require(oracleContract != address(0), \"OracleGuard: invalid address\");\n\n        // Remove oracle permissions\n        auths[alkemiOracle] = 0;\n\n        alkemiOracle = oracleContract;\n        auths[oracleContract] = 2;\n    }\n\n    /**\n   * @notice Set Alkemi Token address\n   * @dev can only be called from an authorized sender\n   * @param _alkemiToken Alkemi Token address\n   */\n    function setTokenContract(address _alkemiToken) external auth(1) {\n        require(_alkemiToken != address(0), \"OracleGuard: invalid address\");\n\n        alkemiToken = _alkemiToken;\n    }\n}\n",
  "sourcePath": "/Users/haythem96/Projects/Alkemi/alkemi-protocol/contracts/oracles/OracleGuard.sol",
  "compiler": {
    "name": "solc",
    "version": "0.5.5+commit.47a71e8f.Emscripten.clang"
  },
  "schemaVersion": "3.0.20",
  "updatedAt": "2020-01-08T15:52:31.392Z",
  "networkType": "ethereum",
  "devdoc": {
    "methods": {
      "authContract(address[])": {
        "details": "can only be called from an authorized sender",
        "params": {
          "a": "contracts addresseses"
        }
      },
      "authNode(address[])": {
        "details": "can only be called from an authorized sender",
        "params": {
          "a": "nodes addresses"
        }
      },
      "constructor": {
        "params": {
          "minimumTokens": "required Alkemi Token for nodes to submit book"
        }
      },
      "deny(address,uint256)": {
        "details": "can only be called from an authorized sender",
        "params": {
          "permission": "Permission type",
          "usr": "address"
        }
      },
      "dropContract(address)": {
        "details": "can only be called from an authorized sender",
        "params": {
          "a": "contract address"
        }
      },
      "dropNode(address)": {
        "details": "can only be called from an authorized sender",
        "params": {
          "a": "node address"
        }
      },
      "isContractAuth(address)": {
        "params": {
          "_contract": "contract address"
        },
        "return": "true if authorized"
      },
      "isNodeAuth(address)": {
        "params": {
          "_node": "node address"
        },
        "return": "true if authorized"
      },
      "isNodeBan(address)": {
        "params": {
          "_node": "node address"
        },
        "return": "true if banned"
      },
      "isNodeSlashed(address)": {
        "params": {
          "_node": "node address"
        },
        "return": "true if banned"
      },
      "registerNode(address[])": {
        "details": "Node can only be registered by Alkemi",
        "params": {
          "a": "node address"
        }
      },
      "rely(address,uint256)": {
        "details": "can only be called from an authorized sender",
        "params": {
          "permission": "Permission type",
          "usr": "address"
        }
      },
      "setOracleContract(address)": {
        "details": "can only be called from an authorized sender",
        "params": {
          "oracleContract": "oracle contract address"
        }
      },
      "setTokenContract(address)": {
        "details": "can only be called from an authorized sender",
        "params": {
          "_alkemiToken": "Alkemi Token address"
        }
      }
    }
  },
  "userdoc": {
    "methods": {
      "authContract(address[])": {
        "notice": "Auth contracts to call oracle"
      },
      "authNode(address[])": {
        "notice": "Auth node to call oracle"
      },
      "constructor": "constructor",
      "deny(address,uint256)": {
        "notice": "Remove from an address OracleGuard Owner permission"
      },
      "dropContract(address)": {
        "notice": "Ban contract"
      },
      "dropNode(address)": {
        "notice": "Ban node"
      },
      "isContractAuth(address)": {
        "notice": "Check if contract is authorized to call Alkemi Oracle"
      },
      "isNodeAuth(address)": {
        "notice": "Check if node is authorized to submit book to Alkemi Oracle"
      },
      "isNodeBan(address)": {
        "notice": "check if node is banned"
      },
      "isNodeSlashed(address)": {
        "notice": "check if node is slashed (node does not have minimum token amount)"
      },
      "registerNode(address[])": {
        "notice": "Register node"
      },
      "rely(address,uint256)": {
        "notice": "Grant to an address permission"
      },
      "setOracleContract(address)": {
        "notice": "Set on-chain oracle address"
      },
      "setTokenContract(address)": {
        "notice": "Set Alkemi Token address"
      }
    }
  }
}